:020000040800F2
:10000000FFFF0020610100084D0000085D000008AE
:100010006D0000087D0000088D0000080000000051
:100020000000000000000000000000009D0000082B
:10003000AD00000800000000BD000008CD00000871
:10004000DD000008DD000008DD00000880B400AF1E
:1000500030BF00BFBD465DF8047B704780B400AF81
:1000600030BF00BFBD465DF8047B704780B400AF71
:1000700030BF00BFBD465DF8047B704780B400AF61
:1000800030BF00BFBD465DF8047B704780B400AF51
:1000900030BF00BFBD465DF8047B704780B400AF41
:1000A00030BF00BFBD465DF8047B704780B400AF31
:1000B00030BF00BFBD465DF8047B704780B400AF21
:1000C00030BF00BFBD465DF8047B704780B400AF11
:1000D00030BF00BFBD465DF8047B704780B400AF01
:1000E000084B1B680133074A1360064B1B68642BDF
:1000F00002D1044B00221A6000BFBD465DF8047BAC
:10010000704700BF1000002080B586B000AF084ADD
:100110003B1D92E8030083E803003B1D3B6107F1B0
:100120000C03184600F008F8024BFF221A70FEE795
:10013000A00100080000002080B483B000AF786008
:10014000064A7B6893607B68044A1A6000BF1846C1
:100150000C37BD465DF8047B704700BF04000020EB
:100160000A490B4A00209142BCBF41F8040BFAE750
:100170000849094A094B9A42BEBF51F8040B42F89C
:10018000040BF8E7FFF7C0FF30BFFEE710000020C8
:1001900014000020A801000800000020100000202A
:0801A000020000000200000053
:1001A800010203040000000000000020000000001D
:04000005080001618D
:00000001FF
