:020000040800F2
:10000000FFFF00204D0000088D0000089D00000843
:10001000AD000008BD000008CD0000080000000091
:10002000000000000000000000000000DD000008EB
:10003000ED00000800000000FD0000080D010008B0
:100040001D0100081D0100081D0100080A490B4A96
:1000500000209142BCBF41F8040BFAE70849094A65
:10006000094B9A42BEBF51F8040B42F8040BF8E763
:1000700000F06AF830BFFEE71000002014000020F6
:0C008000A8010008000000201000002073
:10008C0080B400AF30BF00BFBD465DF8047B704745
:10009C0080B400AF30BF00BFBD465DF8047B704735
:1000AC0080B400AF30BF00BFBD465DF8047B704725
:1000BC0080B400AF30BF00BFBD465DF8047B704715
:1000CC0080B400AF30BF00BFBD465DF8047B704705
:1000DC0080B400AF30BF00BFBD465DF8047B7047F5
:1000EC0080B400AF30BF00BFBD465DF8047B7047E5
:1000FC0080B400AF30BF00BFBD465DF8047B7047D5
:10010C0080B400AF30BF00BFBD465DF8047B7047C4
:10011C0080B400AF084B1B780133DAB2064B1A706F
:10012C00054B1B78642B02D1034B00221A7000BFC5
:0C013C00BD465DF8047B704710000020F9
:1001480080B586B000AF084A3B1D92E8030083E8FB
:1001580003003B1D3B6107F10C03184600F008F84B
:10016800024BFF221A70FEE7A001000800000020E1
:1001780080B483B000AF7860064A7B6893607B6880
:10018800044A1A6000BF18460C37BD465DF8047B68
:08019800704700BF04000020C5
:0801A000020000000200000053
:1001A800010203040000000000000020000000001D
:040000050800004DA2
:00000001FF
